:020000040000FA
:1000000060030020CD0000000000000000000000A0
:1000100000000000000000000000000000000000E0
:1000200000000000000000000000000000000000D0
:1000300000000000000000000000000000000000C0
:10004000D500000000F002F800F030F80CA030C835
:10005000083824182D18A246671EAB4654465D4644
:10006000AC4201D100F022F87E460F3E0FCCB646DE
:100070000126334200D0FB1AA246AB463343184751
:10008000200100003001000000230024002500268C
:10009000103A01D378C1FBD8520700D330C100D544
:1000A0000B6070471FB51FBD10B510BD00F027F8DD
:1000B0001146FFF7F7FF00F055F800F03FF803B4E2
:1000C000FFF7F2FF03BC00F045F80000054880464A
:1000D000C1460047FEE7000003480449044A054BB7
:1000E0007047000045000000600000206003002011
:1000F000600100206001002070477047704775461E
:1001000000F024F8AE46050069465346C008C0001A
:10011000854618B020B5FFF7DFFF60BC002749080F
:10012000B6460026C0C5C0C5C0C5C0C5C0C5C0C58F
:10013000C0C5C0C5403D49008D46704710B5044656
:10014000C046C0462046FFF7BAFF10BD00487047C2
:100150000000002001491820ABBEFEE72600020087
:100160007047000001220B4B1A6000200A4A9B05D1
:100170005A6000210DE0012292071060074A914267
:1001800001DA491C05E00021032801D1002000E02C
:10019000401CF0E700E100E0FFD2C90000E1F505F6
:1001A000B001000000000020600300008800000093
:04000005000000CD2A
:00000001FF
